:100000000C9436000C945E000C945E000C945E0020
:100010000C945E000C945E000C945E000C94F30053
:100020000C945E000C945E000C945E000C945E00D8
:100030000C945E000C945E000C945E000C945E00C8
:100040000C9410050C945E000C94A0050C945E00BA
:100050000C945E000C945E000C945E000C945E00A8
:100060000C945E000C945E002603E90611241FBE6A
:10007000CFEFD8E0DEBFCDBF11E0A0E0B1E0EAEC09
:10008000FFE002C005900D92A835B107D9F713E043
:10009000A8E5B1E001C01D92A132B107E1F710E07F
:1000A000CCE6D0E004C02297FE010E94DF07C836EC
:1000B000D107C9F70E9409050C94E3070C940000CE
:1000C0001092180288E591E090931E0280931D0221
:1000D00010921B0210921C029FEF98B917B88EEF76
:1000E0008AB98BB98FE384B995B986B18F738F3391
:1000F00019F01092190203C081E080931902109246
:100100001A021092200210921F028BB18C6F8BB9D1
:1001100085B1816185B9E8E5F1E0119282E0E831CD
:10012000F807D9F781E08DBD1CBC92E09093B00038
:100130009093B1008AE88093B30090937000789414
:100140000895CF93DF9388E1689FB0011124460F93
:10015000E8E5F1E0DF01A40FB11DE9018A818C938C
:10016000485FDF01A40FB11D89818C93485FE40FC4
:10017000F11D88818083DF91CF91089586B18095AC
:100180008F730895662379F080911902882359F0BE
:1001900081E48093800081E18093810081E08093FD
:1001A0001A02219A089510921A0210928000662372
:1001B00021F080E88093810002C010928100219894
:1001C000299A08950F931F938A0170938900609371
:1001D000880061E00E94C2001093200200931F0279
:1001E0001F910F9108951F920F920FB60F92112435
:1001F0000F931F932F933F934F935F936F938F931F
:100200009F93AF93BF93CF93DF93EF93FF9380912F
:100210001C028F5F80931C028F3050F110921C02E1
:1002200080911B028F5F80931B02883028F0109210
:100230001B0288E591E005C080911D0290911E028D
:10024000489690931E0280931D0280911F02909108
:100250002002009769F001979093200280931F027B
:10026000892B31F4109280002198299A10928100F4
:10027000C0911D02D0911E02AE01495E5F4F2091D8
:100280001C028BB18C6F8BB985B1816185B980E51A
:100290008CBD60911B02062F10E0C801820F911DDA
:1002A000892B21F4809118028EBD01C01EBCFA0179
:1002B00031978F89281710F490E801C090E0DF0192
:1002C00011978081281708F49064FD0131978C9173
:1002D000281708F49062DF0111978081281708F42D
:1002E0009061FD0131978C91281708F49860DF0127
:1002F00011978081281708F49460FD0131978C9143
:10030000281708F49260DF0111978081281708F4FC
:1003100091609EBDFD0131978C91281710F490E8F3
:1003200001C090E0DF0111978081281708F49064E4
:10033000FD0131978C91281708F49062DF01119725
:100340008081281708F49061FD0131978C9128175E
:1003500008F49860DF0111978081281708F49460F1
:10036000FD0131978C91281708F49260DF011197F5
:100370008081281708F491609EBDFD0131978C9112
:10038000281710F490E801C090E0DF0111978081F8
:10039000281708F49064FD0131978C91281708F410
:1003A0009062DF0111978081281708F49061FD01A8
:1003B00031978C91281708F498608081281708F4E9
:1003C000946031978081281708F4926088812817FB
:1003D00008F491600DB407FEFDCF9EBD662311F4B5
:1003E0002FEE03C0613019F42EEF90E00EC029E02B
:1003F00030E0201B310B81E090E002C0880F991F94
:100400002A95E2F7982F909520E00DB407FEFDCFD6
:100410002A9A623020F08BB198239BB903C085B132
:10042000282325B92A981CBCFF91EF91DF91CF9129
:10043000BF91AF919F918F916F915F914F913F913C
:100440002F911F910F910F900FBE0F901F90189535
:10045000E9E6F2E0108211821282339682E0E237FE
:10046000F807C1F781E080937C0280937202809349
:10047000730288E08093740280E991E090937702A0
:1004800080937602109278021092790210927A028A
:1004900010927B020895A9E6B2E0FD0142C03396B6
:1004A00082E0E237F807E9F530E001C031E0E9E643
:1004B000F2E090818381981729F48681981711F4CE
:1004C000992369F59C9111968C911197981739F49D
:1004D00012968C911297981711F4992301F5319681
:1004E000139682E0EC36F80721F79091690221819A
:1004F000921731F480917102981711F4992379F4CD
:1005000090916B02921731F480916F02281711F4C9
:10051000222329F4332311F090E001C093E0892FC6
:1005200008958081882311F28181882309F4BECF48
:100530008281882309F0B3CFB9CF1F93CF93DF9384
:10054000142F83309105B8F563307105A4F577FD5C
:1005500032C09C01220F331F280FAB01440F551FDF
:10056000460FA22FB0E0842F90E063E0AA0FBB1FDC
:100570006A95E1F7FD01E80FF91FEE5DFD4F10836D
:100580002F5FE22FF0E053E0EE0FFF1F5A95E1F7E7
:100590008E0F9F1F8E5D9D4FEC0118834F5F842F40
:1005A00090E0E80FF91FEE5DFD4F1083A80FB91F13
:1005B000AE5DBD4F1C93DF91CF911F910895EF92D7
:1005C000FF920F931F93CF93DF93E2E3F2E0DF01FB
:1005D0001E9787E08083808F8C9313968C9313975C
:1005E0003196189692E0EA33F907A1F700E010E09F
:1005F0001CC08881813019F0823051F404C0C801D8
:10060000B70141E003C0C801B70145E00E949D0267
:100610000894E11CF11C219683E0E816F10449F7E7
:100620000F5F1F4F0330110551F0E801CC0FDD1FA4
:10063000C00FD11FC759DD4FEE24FF24DACFDF9161
:10064000CF911F910F91FF90EF90089581E292E07A
:100650000E946000089581E292E00E94BE009091A5
:10066000620290959823292F217020936402292FEC
:10067000227020936302292F247020936502292F72
:10068000287020936602292F2071209367029072B0
:10069000909368028093620208950F931F93DF93F3
:1006A000CF930F92CDB7DEB7CE0101960E946000C6
:1006B00001E212E0C8010E94BE0080936202C801FC
:1006C00060E070E040E050E00E94E200C80160E0BD
:1006D0000E94C2000F90CF91DF911F910F9108955A
:1006E0000E944D038EE093E040E855E260E070E048
:1006F0000E94DD050E9428020E942B030E945805DB
:1007000060937D0270937E0280937F0290938002BB
:1007100008950F931F93CF93DF93C2E2D2E010E0CE
:1007200003E02F81209F9001112420503F4F81E250
:1007300092E0612F47E00E94A1002E81209F90014E
:10074000112420503F4F81E292E0612F46E00E9449
:10075000A1002D81209F9001112420503F4F81E264
:1007600092E0612F45E00E94A1002C81209F900122
:10077000112420503F4F81E292E0612F44E00E941B
:10078000A1002B81209F9001112420503F4F81E236
:1007900092E0612F43E00E94A1002A81209F9001F6
:1007A000112420503F4F81E292E0612F42E00E94ED
:1007B000A1002981209F9001112420503F4F81E208
:1007C00092E0612F41E00E94A1002881209F9001CA
:1007D000112420503F4F81E292E0612F40E00E94BF
:1007E000A1001F5F2896183009F09BCFDF91CF91B1
:1007F0001F910F910895AF92BF92CF92DF92EF9227
:10080000FF920F931F930E9458057B018C01A090CB
:100810007D02B0907E02C0907F02D09080026093F3
:100820007D0270937E0280937F02909380020E94EB
:100830004B02882311F00E94280220917802309107
:10084000790240917A0250917B022A193B094C09A6
:100850005D092E0D3F1D401F511F209378023093DC
:10086000790240937A0250937B02809176029091B4
:100870007702AA2797FDA095BA2F281739074A07AC
:100880005B0780F0109278021092790210927A023F
:1008900010927B0290E080917502882309F491E028
:1008A000909375020E942B0380916502882379F052
:1008B00020917302822F90E0029714F082E002C030
:1008C000822F8F5F8093730281E080937502809105
:1008D0006602882399F020917302822F90E000979E
:1008E00011F480E006C0049714F082E002C0822F69
:1008F00081508093730281E080937502809167023A
:10090000882399F020917202822F90E0009711F4D1
:1009100080E006C0049714F082E002C0822F81506C
:100920008093720281E0809375028091680288232F
:1009300079F020917202822F90E0029714F082E009
:1009400002C0822F8F5F8093720281E080937502D4
:1009500080916302882321F480916402882329F125
:100960008091720290E020917302FC01EE0FFF1F54
:10097000E80FF91FE20FF11DE759FD4F8081882331
:10098000A1F480917C028083813029F482E08093FD
:100990007C028DE006C0823041F481E080937C02CD
:1009A00088E080937402109275022AE232E080E0BF
:1009B00090E00BC01192E217F307E1F701969F0157
:1009C000285F3F4F8830910549F0FC01A3E0EE0F0E
:1009D000FF1FAA95E1F7EE5DFD4FECCF0E94DF020D
:1009E00080917502882351F06091730280917202A8
:1009F00090E070E0409174020E949D020E94890381
:100A00001F910F91FF90EF90DF90CF90BF90AF902C
:100A100008950E9466050E9470030E94FB03FDCFAB
:100A20001F920F920FB60F9211242F933F938F9323
:100A30009F93AF93BF938091850290918602A0917E
:100A40008702B0918802309189020196A11DB11DE3
:100A5000232F2D5F2D3720F02D570196A11DB11D9D
:100A6000209389028093850290938602A093870247
:100A7000B09388028091810290918202A0918302BA
:100A8000B09184020196A11DB11D809381029093C3
:100A90008202A0938302B0938402BF91AF919F9191
:100AA0008F913F912F910F900FBE0F901F9018952F
:100AB0008FB7F89420918502309186024091870289
:100AC000509188028FBFB901CA010895789484B506
:100AD000826084BD84B5816084BD85B5826085BD3A
:100AE00085B5816085BDEEE6F0E080818160808320
:100AF000E1E8F0E080818260808380818160808392
:100B0000E0E8F0E0808181608083E1EBF0E08081CB
:100B100084608083E0EBF0E0808181608083EAE79D
:100B2000F0E0808184608083808182608083808126
:100B3000816080838081806880831092C1000895E5
:100B40001F920F920FB60F9211242F933F934F9342
:100B50005F936F937F938F939F93AF93BF93EF9325
:100B6000FF934091C600E0910A03F0910B03CF017F
:100B7000019660E870E00E9479079C0180910C0367
:100B800090910D032817390739F0E657FD4F408340
:100B900030930B0320930A03FF91EF91BF91AF9124
:100BA0009F918F917F916F915F914F913F912F9185
:100BB0000F900FBE0F901F9018955F926F927F92CB
:100BC0008F929F92AF92BF92CF92DF92EF92FF925D
:100BD0000F931F93CF93DF93EC013A014B01413404
:100BE00082E458078FE0680780E078070CF07FC048
:100BF00060E874E88EE190E0A40193010E94AE07E2
:100C00002150304040405040CA01B90122E030E05C
:100C100040E050E00E94AE0759016A01A60195012B
:100C2000209530954095509594E0220F331F441F36
:100C3000551F9A95D1F760E074E284EF90E00E942E
:100C4000AE07CA01B9012FEF30E040E050E00E944A
:100C50005A07A40193010E94AE07C90181509F4F1A
:100C6000181619061CF4522E5A9403C05524539496
:100C7000521A60E079E08DE390E0A40193010E94B4
:100C8000AE072150304040405040CA01B90122E037
:100C900030E040E050E00E94AE072095309540954E
:100CA000509583E0220F331F441F551F8A95D1F7BB
:100CB00060E074E284EF90E00E94AE07CA01B901DF
:100CC0002FEF30E040E050E00E945A07A40193016A
:100CD0000E94AE07C90181509F4F181619061CF4D7
:100CE000822F815002C081E0821B851500F5E885C6
:100CF000F98581E090E00A8802C0880F991F0A9464
:100D0000E2F7808360E079E08DE390E0A401930155
:100D10000E94AE072150304040405040CA01B90106
:100D200022E030E040E050E00E94AE0704C0E885D9
:100D3000F98510829501EC81FD813083EE81FF8180
:100D40002083EA85FB85208141E050E0CA010E84C2
:100D500002C0880F991F0A94E2F7282B2083EA85A6
:100D6000FB852081CA010F8402C0880F991F0A9455
:100D7000E2F7282B2083EA85FB858081088802C062
:100D8000440F551F0A94E2F7842B8083DF91CF91A3
:100D90001F910F91FF90EF90DF90CF90BF90AF9099
:100DA0009F908F907F906F905F900895FC01A08539
:100DB000B18521898C9190E0022E02C0959587958E
:100DC0000A94E2F780FFF6CF0484F585E02D608376
:100DD000089582E591E090930F0380930E038AE8D3
:100DE00092E0909311038093100385EC90E0909330
:100DF00013038093120384EC90E090931503809387
:100E0000140380EC90E0909317038093160381EC19
:100E100090E0909319038093180386EC90E09093F0
:100E20001B0380931A0384E080931C0383E0809368
:100E30001D0387E080931E0385E080931F0381E0FC
:100E40008093200308950F931F93CF93DF938C011A
:100E5000EB0109C02196D801ED91FC910190F08140
:100E6000E02DC801099568816623A1F7DF91CF9134
:100E70001F910F910895EF92FF920F931F93CF93BD
:100E8000DF938C017B01EA010CC0D7016D917D01DC
:100E9000D801ED91FC910190F081E02DC8010995F8
:100EA0002197209791F7DF91CF911F910F91FF909C
:100EB000EF900895629FD001739FF001829FE00D33
:100EC000F11D649FE00DF11D929FF00D839FF00DC9
:100ED000749FF00D659FF00D9927729FB00DE11D75
:100EE000F91F639FB00DE11DF91FBD01CF01112452
:100EF000089597FB092E07260AD077FD04D049D024
:100F000006D000201AF4709561957F4F0895F6F78A
:100F1000909581959F4F0895A1E21A2EAA1BBB1BA5
:100F2000FD010DC0AA1FBB1FEE1FFF1FA217B307B5
:100F3000E407F50720F0A21BB30BE40BF50B661FCB
:100F4000771F881F991F1A9469F76095709580958F
:100F500090959B01AC01BD01CF01089597FB092E2F
:100F600005260ED057FD04D0D7DF0AD0001C38F478
:100F700050954095309521953F4F4F4F5F4F0895C5
:100F8000F6F790958095709561957F4F8F4F9F4FA5
:100F90000895AA1BBB1B51E107C0AA1FBB1FA617C0
:100FA000B70710F0A61BB70B881F991F5A95A9F712
:100FB00080959095BC01CD010895EE0FFF1F05901F
:0A0FC000F491E02D0994F894FFCF9E
:100FCA000000000600000C0500070A00000F0000E0
:100FDA000005080004030F020100000101000101DD
:100FEA00000001000003010000010200010F0F0FC1
:100FFA0000000000000000000000000000000000E7
:10100A0000000000000000000000000000000000D6
:08101A000000D60623073B0786
:00000001FF
